{"abi":[{"type":"function","name":"verifyProof","inputs":[{"name":"_pA","type":"uint256[2]","internalType":"uint256[2]"},{"name":"_pB","type":"uint256[2][2]","internalType":"uint256[2][2]"},{"name":"_pC","type":"uint256[2]","internalType":"uint256[2]"}],"outputs":[{"name":"","type":"bool","internalType":"bool"}],"stateMutability":"view"}],"bytecode":{"object":"0x608060405234801561000f575f80fd5b506104b88061001d5f395ff3fe608060405234801561000f575f80fd5b5060043610610029575f3560e01c80636668a9fa1461002d575b5f80fd5b610047600480360381019061004291906103fe565b61005d565b6040516100549190610469565b60405180910390f35b5f610395565b5f608085015f86017f096ea546d712163ea1777bebd7bcc33505f6faa967254a655598865cb8026a2281527f27b7f068063b247078082472ef4ec050b7ad852aa1274e40857887abcb6c7b886020820152833582527f30644e72e131a029b85045b68181585d97816a916871ca8d3c208c16d87cfd4760208501357f30644e72e131a029b85045b68181585d97816a916871ca8d3c208c16d87cfd4703066020830152843560408301526020850135606083015260408501356080830152606085013560a08301527f0a73c5116e5c9036b354a9c79b601fa8f45e232011062e46533eb34c413db0da60c08301527f2e0ea612931447927818dc34d307046bd9ae7d323251ef8fe1a485f174b1979560e08301527f2037184aaeb9aedae8200d5838f9f0f67bb20c3c38b2c2522a0ce841adbff46d6101008301527f0515fde3db772e6dddaaa441d6c95d8eb919183cdd2aebf716ac743c8543a9626101208301527f26545bb25c2be9fa8223d6b2bbac4b140d58da9b04681a920397eededd4756c66101408301527f0c16f0c39e6793c8753eaf4cde1642a7e4429b59305ce918c3385ea2f4840c3b6101608301525f87015161018083015260205f018701516101a08301527f198e9393920d483a7260bfb731fb5d25f1aa493335a9e71297e485b7aef312c26101c08301527f1800deef121f1e76426a00665e5c4479674322d4f75edadd46debd5cd992f6ed6101e08301527f090689d0585ff075ec9e99ad690c3395bc4b313370b38ef355acdadcd122975b6102008301527f12c85ea5db8c6deb4aab71808dcb408fe3d1e7690c43d37b4ce6cc0166fa7daa610220830152853561024083015260208601356102608301527f18f9fc8e828590512f1431d78c6f1fa7a7dc4b3999de6ab73f500eab8d1eba196102808301527f10819bae1320e14c65104294032627793df28b3d9b117f0415c5a2ad81f804146102a08301527f1389cd6391b7ccd1236695b604a97e6b7a664c473d72e37c686f528ea8cb98e66102c08301527f1a00177f2da7a40b1751401c6a949635ff075de559dff5422a9e563054304c3b6102e08301526020826103008460086107d05a03fa825181169350505050949350505050565b60405161038081016040526103ac81848688610063565b805f5260205ff35b5f80fd5b5f80fd5b5f819050826020600202820111156103d7576103d66103b8565b5b92915050565b5f819050826040600202820111156103f8576103f76103b8565b5b92915050565b5f805f6101008486031215610416576104156103b4565b5b5f610423868287016103bc565b9350506040610434868287016103dd565b92505060c0610445868287016103bc565b9150509250925092565b5f8115159050919050565b6104638161044f565b82525050565b5f60208201905061047c5f83018461045a565b9291505056fea2646970667358221220bc1813c01c6fea36ceb76444767a9c13780724c5823e41baecce51b66ba7487164736f6c63430008180033","linkReferences":{}},"methodIdentifiers":{"verifyProof(uint256[2],uint256[2][2],uint256[2])":"6668a9fa"},"id":23}