{"abi":[{"type":"constructor","inputs":[{"name":"_zkContract","type":"address","internalType":"address"}],"stateMutability":"nonpayable"},{"type":"function","name":"authority","inputs":[],"outputs":[{"name":"","type":"address","internalType":"address"}],"stateMutability":"view"},{"type":"function","name":"locked","inputs":[],"outputs":[{"name":"","type":"bool","internalType":"bool"}],"stateMutability":"view"},{"type":"function","name":"setAuthority","inputs":[{"name":"_authority","type":"address","internalType":"address"}],"outputs":[],"stateMutability":"nonpayable"},{"type":"function","name":"stake","inputs":[{"name":"_period","type":"uint256","internalType":"uint256"},{"name":"_amount","type":"uint256","internalType":"uint256"}],"outputs":[],"stateMutability":"payable"},{"type":"function","name":"withdrawByAuthority","inputs":[],"outputs":[],"stateMutability":"nonpayable"},{"type":"function","name":"withdrawByImmigrant","inputs":[{"name":"_pA","type":"uint256[2]","internalType":"uint256[2]"},{"name":"_pB","type":"uint256[2][2]","internalType":"uint256[2][2]"},{"name":"_pC","type":"uint256[2]","internalType":"uint256[2]"},{"name":"_pubSignals","type":"uint256[1]","internalType":"uint256[1]"}],"outputs":[],"stateMutability":"nonpayable"},{"type":"function","name":"zkContract","inputs":[],"outputs":[{"name":"","type":"address","internalType":"address"}],"stateMutability":"view"},{"type":"event","name":"Staked","inputs":[{"name":"staker","type":"address","indexed":false,"internalType":"address"},{"name":"amount","type":"uint256","indexed":false,"internalType":"uint256"}],"anonymous":false},{"type":"error","name":"LocationVault__AuthorityCannotWithdrawYet","inputs":[]},{"type":"error","name":"LocationVault__InsufficientBalance","inputs":[]},{"type":"error","name":"LocationVault__NotAuthority","inputs":[]},{"type":"error","name":"LocationVault__NotZkContract","inputs":[]},{"type":"error","name":"LocationVault__ProofVerificationFailed","inputs":[]},{"type":"error","name":"LocationVault__StakedValueInsufficient","inputs":[]},{"type":"error","name":"LocationVault__VisaPeriodOngoing","inputs":[]},{"type":"error","name":"LocationVault__WithdrawDateExpired","inputs":[]},{"type":"error","name":"ReentrancyGuardReentrantCall","inputs":[]}],"bytecode":{"object":"0x608060405234801562000010575f80fd5b506040516200118438038062001184833981810160405281019062000036919062000103565b60015f819055505f600260146101000a81548160ff0219169083151502179055508060015f6101000a81548173ffffffffffffffffffffffffffffffffffffffff021916908373ffffffffffffffffffffffffffffffffffffffff1602179055505062000133565b5f80fd5b5f73ffffffffffffffffffffffffffffffffffffffff82169050919050565b5f620000cd82620000a2565b9050919050565b620000df81620000c1565b8114620000ea575f80fd5b50565b5f81519050620000fd81620000d4565b92915050565b5f602082840312156200011b576200011a6200009e565b5b5f6200012a84828501620000ed565b91505092915050565b61104380620001415f395ff3fe60806040526004361061006f575f3560e01c80637b0472f01161004d5780637b0472f0146100d9578063bf7e214f146100f5578063cf3090121461011f578063d9d944c1146101495761006f565b80632b4ddf8e146100735780633d062051146100895780637a9e5e4b146100b1575b5f80fd5b34801561007e575f80fd5b50610087610173565b005b348015610094575f80fd5b506100af60048036038101906100aa9190610b59565b610488565b005b3480156100bc575f80fd5b506100d760048036038101906100d29190610c19565b6108bc565b005b6100f360048036038101906100ee9190610c77565b6108ff565b005b348015610100575f80fd5b50610109610a44565b6040516101169190610cc4565b60405180910390f35b34801561012a575f80fd5b50610133610a69565b6040516101409190610cf7565b60405180910390f35b348015610154575f80fd5b5061015d610a7c565b60405161016a9190610cc4565b60405180910390f35b61017b610aa1565b60025f9054906101000a900473ffffffffffffffffffffffffffffffffffffffff1673ffffffffffffffffffffffffffffffffffffffff163373ffffffffffffffffffffffffffffffffffffffff1614610201576040517f048fdf0900000000000000000000000000000000000000000000000000000000815260040160405180910390fd5b5f60035f3373ffffffffffffffffffffffffffffffffffffffff1673ffffffffffffffffffffffffffffffffffffffff1681526020019081526020015f20600101541161027a576040517f5af2a2c900000000000000000000000000000000000000000000000000000000815260040160405180910390fd5b6206978060035f3373ffffffffffffffffffffffffffffffffffffffff1673ffffffffffffffffffffffffffffffffffffffff1681526020019081526020015f205f01546102c89190610d3d565b60035f3373ffffffffffffffffffffffffffffffffffffffff1673ffffffffffffffffffffffffffffffffffffffff1681526020019081526020015f2060020154426103149190610d70565b1161034b576040517fda4ce5a800000000000000000000000000000000000000000000000000000000815260040160405180910390fd5b5f60035f3373ffffffffffffffffffffffffffffffffffffffff1673ffffffffffffffffffffffffffffffffffffffff1681526020019081526020015f206001015490505f60035f3373ffffffffffffffffffffffffffffffffffffffff1673ffffffffffffffffffffffffffffffffffffffff1681526020019081526020015f20600101819055505f3373ffffffffffffffffffffffffffffffffffffffff16826040516103f990610dd0565b5f6040518083038185875af1925050503d805f8114610433576040519150601f19603f3d011682016040523d82523d5f602084013e610438565b606091505b505090508061047c576040517f08c379a000000000000000000000000000000000000000000000000000000000815260040161047390610e3e565b60405180910390fd5b5050610486610ae5565b565b610490610aa1565b8383838360015f9054906101000a900473ffffffffffffffffffffffffffffffffffffffff1673ffffffffffffffffffffffffffffffffffffffff166343753b4d858585856040518563ffffffff1660e01b81526004016104f49493929190610f3d565b602060405180830381865afa15801561050f573d5f803e3d5ffd5b505050506040513d601f19601f820116820180604052508101906105339190610fac565b610569576040517f2495765500000000000000000000000000000000000000000000000000000000815260040160405180910390fd5b5f60035f3373ffffffffffffffffffffffffffffffffffffffff1673ffffffffffffffffffffffffffffffffffffffff1681526020019081526020015f2060010154116105e2576040517f5af2a2c900000000000000000000000000000000000000000000000000000000815260040160405180910390fd5b60035f3373ffffffffffffffffffffffffffffffffffffffff1673ffffffffffffffffffffffffffffffffffffffff1681526020019081526020015f205f015460035f3373ffffffffffffffffffffffffffffffffffffffff1673ffffffffffffffffffffffffffffffffffffffff1681526020019081526020015f20600201544261066e9190610d70565b10156106a6576040517f181f90eb00000000000000000000000000000000000000000000000000000000815260040160405180910390fd5b6206978060035f3373ffffffffffffffffffffffffffffffffffffffff1673ffffffffffffffffffffffffffffffffffffffff1681526020019081526020015f205f01546106f49190610d3d565b60035f3373ffffffffffffffffffffffffffffffffffffffff1673ffffffffffffffffffffffffffffffffffffffff1681526020019081526020015f2060020154426107409190610d70565b10610777576040517f50c347f300000000000000000000000000000000000000000000000000000000815260040160405180910390fd5b5f60035f3373ffffffffffffffffffffffffffffffffffffffff1673ffffffffffffffffffffffffffffffffffffffff1681526020019081526020015f206001015490505f60035f3373ffffffffffffffffffffffffffffffffffffffff1673ffffffffffffffffffffffffffffffffffffffff1681526020019081526020015f20600101819055505f3373ffffffffffffffffffffffffffffffffffffffff168260405161082590610dd0565b5f6040518083038185875af1925050503d805f811461085f576040519150601f19603f3d011682016040523d82523d5f602084013e610864565b606091505b50509050806108a8576040517f08c379a000000000000000000000000000000000000000000000000000000000815260040161089f90610e3e565b60405180910390fd5b5050505050506108b6610ae5565b50505050565b8060025f6101000a81548173ffffffffffffffffffffffffffffffffffffffff021916908373ffffffffffffffffffffffffffffffffffffffff16021790555050565b80341015610939576040517fd4976f1900000000000000000000000000000000000000000000000000000000815260040160405180910390fd5b8060035f3373ffffffffffffffffffffffffffffffffffffffff1673ffffffffffffffffffffffffffffffffffffffff1681526020019081526020015f20600101819055508160035f3373ffffffffffffffffffffffffffffffffffffffff1673ffffffffffffffffffffffffffffffffffffffff1681526020019081526020015f205f01819055504260035f3373ffffffffffffffffffffffffffffffffffffffff1673ffffffffffffffffffffffffffffffffffffffff1681526020019081526020015f20600201819055507f9e71bc8eea02a63969f509818f2dafb9254532904319f9dbda79b67bd34a5f3d3382604051610a38929190610fe6565b60405180910390a15050565b60025f9054906101000a900473ffffffffffffffffffffffffffffffffffffffff1681565b600260149054906101000a900460ff1681565b60015f9054906101000a900473ffffffffffffffffffffffffffffffffffffffff1681565b60025f5403610adc576040517f3ee5aeb500000000000000000000000000000000000000000000000000000000815260040160405180910390fd5b60025f81905550565b60015f81905550565b5f80fd5b5f80fd5b5f81905082602060020282011115610b1157610b10610af2565b5b92915050565b5f81905082604060020282011115610b3257610b31610af2565b5b92915050565b5f81905082602060010282011115610b5357610b52610af2565b5b92915050565b5f805f806101208587031215610b7257610b71610aee565b5b5f610b7f87828801610af6565b9450506040610b9087828801610b17565b93505060c0610ba187828801610af6565b925050610100610bb387828801610b38565b91505092959194509250565b5f73ffffffffffffffffffffffffffffffffffffffff82169050919050565b5f610be882610bbf565b9050919050565b610bf881610bde565b8114610c02575f80fd5b50565b5f81359050610c1381610bef565b92915050565b5f60208284031215610c2e57610c2d610aee565b5b5f610c3b84828501610c05565b91505092915050565b5f819050919050565b610c5681610c44565b8114610c60575f80fd5b50565b5f81359050610c7181610c4d565b92915050565b5f8060408385031215610c8d57610c8c610aee565b5b5f610c9a85828601610c63565b9250506020610cab85828601610c63565b9150509250929050565b610cbe81610bde565b82525050565b5f602082019050610cd75f830184610cb5565b92915050565b5f8115159050919050565b610cf181610cdd565b82525050565b5f602082019050610d0a5f830184610ce8565b92915050565b7f4e487b71000000000000000000000000000000000000000000000000000000005f52601160045260245ffd5b5f610d4782610c44565b9150610d5283610c44565b9250828201905080821115610d6a57610d69610d10565b5b92915050565b5f610d7a82610c44565b9150610d8583610c44565b9250828203905081811115610d9d57610d9c610d10565b5b92915050565b5f81905092915050565b50565b5f610dbb5f83610da3565b9150610dc682610dad565b5f82019050919050565b5f610dda82610db0565b9150819050919050565b5f82825260208201905092915050565b7f5472616e73666572204661696c656400000000000000000000000000000000005f82015250565b5f610e28600f83610de4565b9150610e3382610df4565b602082019050919050565b5f6020820190508181035f830152610e5581610e1c565b9050919050565b82818337505050565b610e7160408383610e5c565b5050565b5f60029050919050565b5f81905092915050565b5f819050919050565b610e9e60408383610e5c565b5050565b5f610ead8383610e92565b60408301905092915050565b5f82905092915050565b5f604082019050919050565b610ed881610e75565b610ee28184610e7f565b9250610eed82610e89565b805f5b83811015610f2557610f028284610eb9565b610f0c8782610ea2565b9650610f1783610ec3565b925050600181019050610ef0565b505050505050565b610f3960208383610e5c565b5050565b5f61012082019050610f515f830187610e65565b610f5e6040830186610ecf565b610f6b60c0830185610e65565b610f79610100830184610f2d565b95945050505050565b610f8b81610cdd565b8114610f95575f80fd5b50565b5f81519050610fa681610f82565b92915050565b5f60208284031215610fc157610fc0610aee565b5b5f610fce84828501610f98565b91505092915050565b610fe081610c44565b82525050565b5f604082019050610ff95f830185610cb5565b6110066020830184610fd7565b939250505056fea264697066735822122091c9112f7c58256214be5749d641cb18945bda53cc14adf636890fec6c2b2d5d64736f6c63430008180033","linkReferences":{}},"methodIdentifiers":{"authority()":"bf7e214f","locked()":"cf309012","setAuthority(address)":"7a9e5e4b","stake(uint256,uint256)":"7b0472f0","withdrawByAuthority()":"2b4ddf8e","withdrawByImmigrant(uint256[2],uint256[2][2],uint256[2],uint256[1])":"3d062051","zkContract()":"d9d944c1"},"id":17}