{"abi":[{"type":"constructor","inputs":[{"name":"_amount","type":"uint256","internalType":"uint256"},{"name":"_zkContract","type":"address","internalType":"address"}],"stateMutability":"nonpayable"},{"type":"function","name":"amount","inputs":[],"outputs":[{"name":"","type":"uint256","internalType":"uint256"}],"stateMutability":"view"},{"type":"function","name":"authority","inputs":[],"outputs":[{"name":"","type":"address","internalType":"address"}],"stateMutability":"view"},{"type":"function","name":"locked","inputs":[],"outputs":[{"name":"","type":"bool","internalType":"bool"}],"stateMutability":"view"},{"type":"function","name":"stake","inputs":[{"name":"_period","type":"uint256","internalType":"uint256"},{"name":"_amount","type":"uint256","internalType":"uint256"}],"outputs":[],"stateMutability":"payable"},{"type":"function","name":"withdrawByAuthority","inputs":[{"name":"_visaExpiredImmigrant","type":"address","internalType":"address"}],"outputs":[],"stateMutability":"nonpayable"},{"type":"function","name":"withdrawByImmigrant","inputs":[{"name":"_pA","type":"uint256[2]","internalType":"uint256[2]"},{"name":"_pB","type":"uint256[2][2]","internalType":"uint256[2][2]"},{"name":"_pC","type":"uint256[2]","internalType":"uint256[2]"}],"outputs":[],"stateMutability":"nonpayable"},{"type":"function","name":"zkContract","inputs":[],"outputs":[{"name":"","type":"address","internalType":"address"}],"stateMutability":"view"},{"type":"event","name":"Staked","inputs":[{"name":"staker","type":"address","indexed":false,"internalType":"address"},{"name":"amount","type":"uint256","indexed":false,"internalType":"uint256"}],"anonymous":false},{"type":"error","name":"LocationVault__AuthorityCannotWithdrawYet","inputs":[]},{"type":"error","name":"LocationVault__InsufficientBalance","inputs":[]},{"type":"error","name":"LocationVault__NotAuthority","inputs":[]},{"type":"error","name":"LocationVault__NotZkContract","inputs":[]},{"type":"error","name":"LocationVault__ProofVerificationFailed","inputs":[]},{"type":"error","name":"LocationVault__StakedValueInsufficient","inputs":[]},{"type":"error","name":"LocationVault__VisaPeriodOngoing","inputs":[]},{"type":"error","name":"LocationVault__WithdrawDateExpired","inputs":[]},{"type":"error","name":"ReentrancyGuardReentrantCall","inputs":[]}],"bytecode":{"object":"0x608060405234801562000010575f80fd5b506040516200117438038062001174833981810160405281019062000036919062000143565b60015f81905550816003819055505f600260146101000a81548160ff0219169083151502179055508060015f6101000a81548173ffffffffffffffffffffffffffffffffffffffff021916908373ffffffffffffffffffffffffffffffffffffffff160217905550505062000188565b5f80fd5b5f819050919050565b620000be81620000aa565b8114620000c9575f80fd5b50565b5f81519050620000dc81620000b3565b92915050565b5f73ffffffffffffffffffffffffffffffffffffffff82169050919050565b5f6200010d82620000e2565b9050919050565b6200011f8162000101565b81146200012a575f80fd5b50565b5f815190506200013d8162000114565b92915050565b5f80604083850312156200015c576200015b620000a6565b5b5f6200016b85828601620000cc565b92505060206200017e858286016200012d565b9150509250929050565b610fde80620001965f395ff3fe60806040526004361061006f575f3560e01c8063bf7e214f1161004d578063bf7e214f146100e1578063cf3090121461010b578063d9d944c114610135578063f73ff35d1461015f5761006f565b80637b0472f014610073578063815be5341461008f578063aa8c217c146100b7575b5f80fd5b61008d60048036038101906100889190610afc565b610187565b005b34801561009a575f80fd5b506100b560048036038101906100b09190610b94565b6102d0565b005b3480156100c2575f80fd5b506100cb6105e6565b6040516100d89190610bce565b60405180910390f35b3480156100ec575f80fd5b506100f56105ec565b6040516101029190610bf6565b60405180910390f35b348015610116575f80fd5b5061011f610611565b60405161012c9190610c29565b60405180910390f35b348015610140575f80fd5b50610149610624565b6040516101569190610bf6565b60405180910390f35b34801561016a575f80fd5b5061018560048036038101906101809190610c88565b610649565b005b803410156101c1576040517fd4976f1900000000000000000000000000000000000000000000000000000000815260040160405180910390fd5b60035460045f3373ffffffffffffffffffffffffffffffffffffffff1673ffffffffffffffffffffffffffffffffffffffff1681526020019081526020015f20600101819055508160045f3373ffffffffffffffffffffffffffffffffffffffff1673ffffffffffffffffffffffffffffffffffffffff1681526020019081526020015f205f01819055504260045f3373ffffffffffffffffffffffffffffffffffffffff1673ffffffffffffffffffffffffffffffffffffffff1681526020019081526020015f20600201819055507f9e71bc8eea02a63969f509818f2dafb9254532904319f9dbda79b67bd34a5f3d336003546040516102c4929190610cd9565b60405180910390a15050565b6102d8610a78565b60025f9054906101000a900473ffffffffffffffffffffffffffffffffffffffff1673ffffffffffffffffffffffffffffffffffffffff163373ffffffffffffffffffffffffffffffffffffffff161461035e576040517f048fdf0900000000000000000000000000000000000000000000000000000000815260040160405180910390fd5b5f60045f8373ffffffffffffffffffffffffffffffffffffffff1673ffffffffffffffffffffffffffffffffffffffff1681526020019081526020015f2060010154116103d7576040517f5af2a2c900000000000000000000000000000000000000000000000000000000815260040160405180910390fd5b6206978060045f8373ffffffffffffffffffffffffffffffffffffffff1673ffffffffffffffffffffffffffffffffffffffff1681526020019081526020015f205f01546104259190610d2d565b60045f8373ffffffffffffffffffffffffffffffffffffffff1673ffffffffffffffffffffffffffffffffffffffff1681526020019081526020015f2060020154426104719190610d60565b116104a8576040517fda4ce5a800000000000000000000000000000000000000000000000000000000815260040160405180910390fd5b5f60045f8373ffffffffffffffffffffffffffffffffffffffff1673ffffffffffffffffffffffffffffffffffffffff1681526020019081526020015f206001015490505f60045f8473ffffffffffffffffffffffffffffffffffffffff1673ffffffffffffffffffffffffffffffffffffffff1681526020019081526020015f20600101819055505f3373ffffffffffffffffffffffffffffffffffffffff168260405161055690610dc0565b5f6040518083038185875af1925050503d805f8114610590576040519150601f19603f3d011682016040523d82523d5f602084013e610595565b606091505b50509050806105d9576040517f08c379a00000000000000000000000000000000000000000000000000000000081526004016105d090610e2e565b60405180910390fd5b50506105e3610abc565b50565b60035481565b60025f9054906101000a900473ffffffffffffffffffffffffffffffffffffffff1681565b600260149054906101000a900460ff1681565b60015f9054906101000a900473ffffffffffffffffffffffffffffffffffffffff1681565b610651610a78565b82828260015f9054906101000a900473ffffffffffffffffffffffffffffffffffffffff1673ffffffffffffffffffffffffffffffffffffffff16636668a9fa8484846040518463ffffffff1660e01b81526004016106b293929190610f1d565b602060405180830381865afa1580156106cd573d5f803e3d5ffd5b505050506040513d601f19601f820116820180604052508101906106f19190610f7d565b610727576040517f2495765500000000000000000000000000000000000000000000000000000000815260040160405180910390fd5b5f60045f3373ffffffffffffffffffffffffffffffffffffffff1673ffffffffffffffffffffffffffffffffffffffff1681526020019081526020015f2060010154116107a0576040517f5af2a2c900000000000000000000000000000000000000000000000000000000815260040160405180910390fd5b60045f3373ffffffffffffffffffffffffffffffffffffffff1673ffffffffffffffffffffffffffffffffffffffff1681526020019081526020015f205f015460045f3373ffffffffffffffffffffffffffffffffffffffff1673ffffffffffffffffffffffffffffffffffffffff1681526020019081526020015f20600201544261082c9190610d60565b1015610864576040517f181f90eb00000000000000000000000000000000000000000000000000000000815260040160405180910390fd5b6206978060045f3373ffffffffffffffffffffffffffffffffffffffff1673ffffffffffffffffffffffffffffffffffffffff1681526020019081526020015f205f01546108b29190610d2d565b60045f3373ffffffffffffffffffffffffffffffffffffffff1673ffffffffffffffffffffffffffffffffffffffff1681526020019081526020015f2060020154426108fe9190610d60565b10610935576040517f50c347f300000000000000000000000000000000000000000000000000000000815260040160405180910390fd5b5f60045f3373ffffffffffffffffffffffffffffffffffffffff1673ffffffffffffffffffffffffffffffffffffffff1681526020019081526020015f206001015490505f60045f3373ffffffffffffffffffffffffffffffffffffffff1673ffffffffffffffffffffffffffffffffffffffff1681526020019081526020015f20600101819055505f3373ffffffffffffffffffffffffffffffffffffffff16826040516109e390610dc0565b5f6040518083038185875af1925050503d805f8114610a1d576040519150601f19603f3d011682016040523d82523d5f602084013e610a22565b606091505b5050905080610a66576040517f08c379a0000000000000000000000000000000000000000000000000000000008152600401610a5d90610e2e565b60405180910390fd5b5050505050610a73610abc565b505050565b60025f5403610ab3576040517f3ee5aeb500000000000000000000000000000000000000000000000000000000815260040160405180910390fd5b60025f81905550565b60015f81905550565b5f80fd5b5f819050919050565b610adb81610ac9565b8114610ae5575f80fd5b50565b5f81359050610af681610ad2565b92915050565b5f8060408385031215610b1257610b11610ac5565b5b5f610b1f85828601610ae8565b9250506020610b3085828601610ae8565b9150509250929050565b5f73ffffffffffffffffffffffffffffffffffffffff82169050919050565b5f610b6382610b3a565b9050919050565b610b7381610b59565b8114610b7d575f80fd5b50565b5f81359050610b8e81610b6a565b92915050565b5f60208284031215610ba957610ba8610ac5565b5b5f610bb684828501610b80565b91505092915050565b610bc881610ac9565b82525050565b5f602082019050610be15f830184610bbf565b92915050565b610bf081610b59565b82525050565b5f602082019050610c095f830184610be7565b92915050565b5f8115159050919050565b610c2381610c0f565b82525050565b5f602082019050610c3c5f830184610c1a565b92915050565b5f80fd5b5f81905082602060020282011115610c6157610c60610c42565b5b92915050565b5f81905082604060020282011115610c8257610c81610c42565b5b92915050565b5f805f6101008486031215610ca057610c9f610ac5565b5b5f610cad86828701610c46565b9350506040610cbe86828701610c67565b92505060c0610ccf86828701610c46565b9150509250925092565b5f604082019050610cec5f830185610be7565b610cf96020830184610bbf565b9392505050565b7f4e487b71000000000000000000000000000000000000000000000000000000005f52601160045260245ffd5b5f610d3782610ac9565b9150610d4283610ac9565b9250828201905080821115610d5a57610d59610d00565b5b92915050565b5f610d6a82610ac9565b9150610d7583610ac9565b9250828203905081811115610d8d57610d8c610d00565b5b92915050565b5f81905092915050565b50565b5f610dab5f83610d93565b9150610db682610d9d565b5f82019050919050565b5f610dca82610da0565b9150819050919050565b5f82825260208201905092915050565b7f5472616e73666572204661696c656400000000000000000000000000000000005f82015250565b5f610e18600f83610dd4565b9150610e2382610de4565b602082019050919050565b5f6020820190508181035f830152610e4581610e0c565b9050919050565b82818337505050565b610e6160408383610e4c565b5050565b5f60029050919050565b5f81905092915050565b5f819050919050565b610e8e60408383610e4c565b5050565b5f610e9d8383610e82565b60408301905092915050565b5f82905092915050565b5f604082019050919050565b610ec881610e65565b610ed28184610e6f565b9250610edd82610e79565b805f5b83811015610f1557610ef28284610ea9565b610efc8782610e92565b9650610f0783610eb3565b925050600181019050610ee0565b505050505050565b5f61010082019050610f315f830186610e55565b610f3e6040830185610ebf565b610f4b60c0830184610e55565b949350505050565b610f5c81610c0f565b8114610f66575f80fd5b50565b5f81519050610f7781610f53565b92915050565b5f60208284031215610f9257610f91610ac5565b5b5f610f9f84828501610f69565b9150509291505056fea264697066735822122088a1d743b06d8adf9dc05281248fb35737381d715899ef39e30a15397c8384b364736f6c63430008180033","linkReferences":{}},"methodIdentifiers":{"amount()":"aa8c217c","authority()":"bf7e214f","locked()":"cf309012","stake(uint256,uint256)":"7b0472f0","withdrawByAuthority(address)":"815be534","withdrawByImmigrant(uint256[2],uint256[2][2],uint256[2])":"f73ff35d","zkContract()":"d9d944c1"},"id":17}