{
  "abi": [
    {
      "type": "constructor",
      "inputs": [
        {
          "name": "_amount",
          "type": "uint256",
          "internalType": "uint256"
        },
        {
          "name": "_zkContract",
          "type": "address",
          "internalType": "address"
        }
      ],
      "stateMutability": "nonpayable"
    },
    {
      "type": "function",
      "name": "amount",
      "inputs": [],
      "outputs": [
        {
          "name": "",
          "type": "uint256",
          "internalType": "uint256"
        }
      ],
      "stateMutability": "view"
    },
    {
      "type": "function",
      "name": "authority",
      "inputs": [],
      "outputs": [
        {
          "name": "",
          "type": "address",
          "internalType": "address"
        }
      ],
      "stateMutability": "view"
    },
    {
      "type": "function",
      "name": "locked",
      "inputs": [],
      "outputs": [
        {
          "name": "",
          "type": "bool",
          "internalType": "bool"
        }
      ],
      "stateMutability": "view"
    },
    {
      "type": "function",
      "name": "stake",
      "inputs": [
        {
          "name": "_period",
          "type": "uint256",
          "internalType": "uint256"
        },
        {
          "name": "_amount",
          "type": "uint256",
          "internalType": "uint256"
        }
      ],
      "outputs": [],
      "stateMutability": "payable"
    },
    {
      "type": "function",
      "name": "withdrawByAuthority",
      "inputs": [],
      "outputs": [],
      "stateMutability": "nonpayable"
    },
    {
      "type": "function",
      "name": "withdrawByImmigrant",
      "inputs": [
        {
          "name": "_pA",
          "type": "uint256[2]",
          "internalType": "uint256[2]"
        },
        {
          "name": "_pB",
          "type": "uint256[2][2]",
          "internalType": "uint256[2][2]"
        },
        {
          "name": "_pC",
          "type": "uint256[2]",
          "internalType": "uint256[2]"
        }
      ],
      "outputs": [],
      "stateMutability": "nonpayable"
    },
    {
      "type": "function",
      "name": "zkContract",
      "inputs": [],
      "outputs": [
        {
          "name": "",
          "type": "address",
          "internalType": "address"
        }
      ],
      "stateMutability": "view"
    },
    {
      "type": "event",
      "name": "Staked",
      "inputs": [
        {
          "name": "staker",
          "type": "address",
          "indexed": false,
          "internalType": "address"
        },
        {
          "name": "amount",
          "type": "uint256",
          "indexed": false,
          "internalType": "uint256"
        }
      ],
      "anonymous": false
    },
    {
      "type": "error",
      "name": "LocationVault__AuthorityCannotWithdrawYet",
      "inputs": []
    },
    {
      "type": "error",
      "name": "LocationVault__InsufficientBalance",
      "inputs": []
    },
    {
      "type": "error",
      "name": "LocationVault__NotAuthority",
      "inputs": []
    },
    {
      "type": "error",
      "name": "LocationVault__NotZkContract",
      "inputs": []
    },
    {
      "type": "error",
      "name": "LocationVault__ProofVerificationFailed",
      "inputs": []
    },
    {
      "type": "error",
      "name": "LocationVault__StakedValueInsufficient",
      "inputs": []
    },
    {
      "type": "error",
      "name": "LocationVault__VisaPeriodOngoing",
      "inputs": []
    },
    {
      "type": "error",
      "name": "LocationVault__WithdrawDateExpired",
      "inputs": []
    },
    {
      "type": "error",
      "name": "ReentrancyGuardReentrantCall",
      "inputs": []
    }
  ],
  "bytecode": {
    "object": "0x608060405234801562000010575f80fd5b506040516200110238038062001102833981810160405281019062000036919062000143565b60015f81905550816003819055505f600260146101000a81548160ff0219169083151502179055508060015f6101000a81548173ffffffffffffffffffffffffffffffffffffffff021916908373ffffffffffffffffffffffffffffffffffffffff160217905550505062000188565b5f80fd5b5f819050919050565b620000be81620000aa565b8114620000c9575f80fd5b50565b5f81519050620000dc81620000b3565b92915050565b5f73ffffffffffffffffffffffffffffffffffffffff82169050919050565b5f6200010d82620000e2565b9050919050565b6200011f8162000101565b81146200012a575f80fd5b50565b5f815190506200013d8162000114565b92915050565b5f80604083850312156200015c576200015b620000a6565b5b5f6200016b85828601620000cc565b92505060206200017e858286016200012d565b9150509250929050565b610f6c80620001965f395ff3fe60806040526004361061006f575f3560e01c8063bf7e214f1161004d578063bf7e214f146100cf578063cf309012146100f9578063d9d944c114610123578063f73ff35d1461014d5761006f565b80632b4ddf8e146100735780637b0472f014610089578063aa8c217c146100a5575b5f80fd5b34801561007e575f80fd5b50610087610175565b005b6100a3600480360381019061009e9190610adf565b610485565b005b3480156100b0575f80fd5b506100b96105ce565b6040516100c69190610b2c565b60405180910390f35b3480156100da575f80fd5b506100e36105d4565b6040516100f09190610b84565b60405180910390f35b348015610104575f80fd5b5061010d6105f9565b60405161011a9190610bb7565b60405180910390f35b34801561012e575f80fd5b5061013761060c565b6040516101449190610b84565b60405180910390f35b348015610158575f80fd5b50610173600480360381019061016e9190610c16565b610631565b005b61017d610a5b565b60025f9054906101000a900473ffffffffffffffffffffffffffffffffffffffff1673ffffffffffffffffffffffffffffffffffffffff163373ffffffffffffffffffffffffffffffffffffffff1614610203576040517f048fdf0900000000000000000000000000000000000000000000000000000000815260040160405180910390fd5b5f60045f3373ffffffffffffffffffffffffffffffffffffffff1673ffffffffffffffffffffffffffffffffffffffff1681526020019081526020015f20600101541161027c576040517f5af2a2c900000000000000000000000000000000000000000000000000000000815260040160405180910390fd5b6206978060045f3373ffffffffffffffffffffffffffffffffffffffff1673ffffffffffffffffffffffffffffffffffffffff1681526020019081526020015f205f01546102ca9190610c94565b60045f3373ffffffffffffffffffffffffffffffffffffffff1673ffffffffffffffffffffffffffffffffffffffff1681526020019081526020015f2060020154426103169190610cc7565b1161034d576040517fda4ce5a800000000000000000000000000000000000000000000000000000000815260040160405180910390fd5b5f60045f3373ffffffffffffffffffffffffffffffffffffffff1673ffffffffffffffffffffffffffffffffffffffff1681526020019081526020015f20600101819055505f3373ffffffffffffffffffffffffffffffffffffffff1660045f3373ffffffffffffffffffffffffffffffffffffffff1673ffffffffffffffffffffffffffffffffffffffff1681526020019081526020015f20600101546040516103f790610d27565b5f6040518083038185875af1925050503d805f8114610431576040519150601f19603f3d011682016040523d82523d5f602084013e610436565b606091505b505090508061047a576040517f08c379a000000000000000000000000000000000000000000000000000000000815260040161047190610d95565b60405180910390fd5b50610483610a9f565b565b803410156104bf576040517fd4976f1900000000000000000000000000000000000000000000000000000000815260040160405180910390fd5b60035460045f3373ffffffffffffffffffffffffffffffffffffffff1673ffffffffffffffffffffffffffffffffffffffff1681526020019081526020015f20600101819055508160045f3373ffffffffffffffffffffffffffffffffffffffff1673ffffffffffffffffffffffffffffffffffffffff1681526020019081526020015f205f01819055504260045f3373ffffffffffffffffffffffffffffffffffffffff1673ffffffffffffffffffffffffffffffffffffffff1681526020019081526020015f20600201819055507f9e71bc8eea02a63969f509818f2dafb9254532904319f9dbda79b67bd34a5f3d336003546040516105c2929190610db3565b60405180910390a15050565b60035481565b60025f9054906101000a900473ffffffffffffffffffffffffffffffffffffffff1681565b600260149054906101000a900460ff1681565b60015f9054906101000a900473ffffffffffffffffffffffffffffffffffffffff1681565b610639610a5b565b82828260015f9054906101000a900473ffffffffffffffffffffffffffffffffffffffff1673ffffffffffffffffffffffffffffffffffffffff16636668a9fa8484846040518463ffffffff1660e01b815260040161069a93929190610eab565b602060405180830381865afa1580156106b5573d5f803e3d5ffd5b505050506040513d601f19601f820116820180604052508101906106d99190610f0b565b61070f576040517f2495765500000000000000000000000000000000000000000000000000000000815260040160405180910390fd5b5f60045f3373ffffffffffffffffffffffffffffffffffffffff1673ffffffffffffffffffffffffffffffffffffffff1681526020019081526020015f206001015411610788576040517f5af2a2c900000000000000000000000000000000000000000000000000000000815260040160405180910390fd5b60045f3373ffffffffffffffffffffffffffffffffffffffff1673ffffffffffffffffffffffffffffffffffffffff1681526020019081526020015f205f015460045f3373ffffffffffffffffffffffffffffffffffffffff1673ffffffffffffffffffffffffffffffffffffffff1681526020019081526020015f2060020154426108149190610cc7565b101561084c576040517f181f90eb00000000000000000000000000000000000000000000000000000000815260040160405180910390fd5b6206978060045f3373ffffffffffffffffffffffffffffffffffffffff1673ffffffffffffffffffffffffffffffffffffffff1681526020019081526020015f205f015461089a9190610c94565b60045f3373ffffffffffffffffffffffffffffffffffffffff1673ffffffffffffffffffffffffffffffffffffffff1681526020019081526020015f2060020154426108e69190610cc7565b1061091d576040517f50c347f300000000000000000000000000000000000000000000000000000000815260040160405180910390fd5b5f60045f3373ffffffffffffffffffffffffffffffffffffffff1673ffffffffffffffffffffffffffffffffffffffff1681526020019081526020015f20600101819055505f3373ffffffffffffffffffffffffffffffffffffffff1660045f3373ffffffffffffffffffffffffffffffffffffffff1673ffffffffffffffffffffffffffffffffffffffff1681526020019081526020015f20600101546040516109c790610d27565b5f6040518083038185875af1925050503d805f8114610a01576040519150601f19603f3d011682016040523d82523d5f602084013e610a06565b606091505b5050905080610a4a576040517f08c379a0000000000000000000000000000000000000000000000000000000008152600401610a4190610d95565b60405180910390fd5b50505050610a56610a9f565b505050565b60025f5403610a96576040517f3ee5aeb500000000000000000000000000000000000000000000000000000000815260040160405180910390fd5b60025f81905550565b60015f81905550565b5f80fd5b5f819050919050565b610abe81610aac565b8114610ac8575f80fd5b50565b5f81359050610ad981610ab5565b92915050565b5f8060408385031215610af557610af4610aa8565b5b5f610b0285828601610acb565b9250506020610b1385828601610acb565b9150509250929050565b610b2681610aac565b82525050565b5f602082019050610b3f5f830184610b1d565b92915050565b5f73ffffffffffffffffffffffffffffffffffffffff82169050919050565b5f610b6e82610b45565b9050919050565b610b7e81610b64565b82525050565b5f602082019050610b975f830184610b75565b92915050565b5f8115159050919050565b610bb181610b9d565b82525050565b5f602082019050610bca5f830184610ba8565b92915050565b5f80fd5b5f81905082602060020282011115610bef57610bee610bd0565b5b92915050565b5f81905082604060020282011115610c1057610c0f610bd0565b5b92915050565b5f805f6101008486031215610c2e57610c2d610aa8565b5b5f610c3b86828701610bd4565b9350506040610c4c86828701610bf5565b92505060c0610c5d86828701610bd4565b9150509250925092565b7f4e487b71000000000000000000000000000000000000000000000000000000005f52601160045260245ffd5b5f610c9e82610aac565b9150610ca983610aac565b9250828201905080821115610cc157610cc0610c67565b5b92915050565b5f610cd182610aac565b9150610cdc83610aac565b9250828203905081811115610cf457610cf3610c67565b5b92915050565b5f81905092915050565b50565b5f610d125f83610cfa565b9150610d1d82610d04565b5f82019050919050565b5f610d3182610d07565b9150819050919050565b5f82825260208201905092915050565b7f5472616e73666572204661696c656400000000000000000000000000000000005f82015250565b5f610d7f600f83610d3b565b9150610d8a82610d4b565b602082019050919050565b5f6020820190508181035f830152610dac81610d73565b9050919050565b5f604082019050610dc65f830185610b75565b610dd36020830184610b1d565b9392505050565b82818337505050565b610def60408383610dda565b5050565b5f60029050919050565b5f81905092915050565b5f819050919050565b610e1c60408383610dda565b5050565b5f610e2b8383610e10565b60408301905092915050565b5f82905092915050565b5f604082019050919050565b610e5681610df3565b610e608184610dfd565b9250610e6b82610e07565b805f5b83811015610ea357610e808284610e37565b610e8a8782610e20565b9650610e9583610e41565b925050600181019050610e6e565b505050505050565b5f61010082019050610ebf5f830186610de3565b610ecc6040830185610e4d565b610ed960c0830184610de3565b949350505050565b610eea81610b9d565b8114610ef4575f80fd5b50565b5f81519050610f0581610ee1565b92915050565b5f60208284031215610f2057610f1f610aa8565b5b5f610f2d84828501610ef7565b9150509291505056fea2646970667358221220f2a1ac09f9d9eb0c7bb7b6429112b06bbe617f0089c91929663bfacc9d7ed41564736f6c63430008180033",
    "linkReferences": {}
  },
  "methodIdentifiers": {
    "amount()": "aa8c217c",
    "authority()": "bf7e214f",
    "locked()": "cf309012",
    "stake(uint256,uint256)": "7b0472f0",
    "withdrawByAuthority()": "2b4ddf8e",
    "withdrawByImmigrant(uint256[2],uint256[2][2],uint256[2])": "f73ff35d",
    "zkContract()": "d9d944c1"
  },
  "id": 22
}