{
  "abi": [
    {
      "type": "constructor",
      "inputs": [
        {
          "name": "_zkContract",
          "type": "address",
          "internalType": "address"
        }
      ],
      "stateMutability": "nonpayable"
    },
    {
      "type": "function",
      "name": "authority",
      "inputs": [],
      "outputs": [
        {
          "name": "",
          "type": "address",
          "internalType": "address"
        }
      ],
      "stateMutability": "view"
    },
    {
      "type": "function",
      "name": "locked",
      "inputs": [],
      "outputs": [
        {
          "name": "",
          "type": "bool",
          "internalType": "bool"
        }
      ],
      "stateMutability": "view"
    },
    {
      "type": "function",
      "name": "stake",
      "inputs": [
        {
          "name": "_period",
          "type": "uint256",
          "internalType": "uint256"
        },
        {
          "name": "_amount",
          "type": "uint256",
          "internalType": "uint256"
        }
      ],
      "outputs": [],
      "stateMutability": "payable"
    },
    {
      "type": "function",
      "name": "withdrawByAuthority",
      "inputs": [],
      "outputs": [],
      "stateMutability": "nonpayable"
    },
    {
      "type": "function",
      "name": "withdrawByImmigrant",
      "inputs": [
        {
          "name": "_pA",
          "type": "uint256[2]",
          "internalType": "uint256[2]"
        },
        {
          "name": "_pB",
          "type": "uint256[2][2]",
          "internalType": "uint256[2][2]"
        },
        {
          "name": "_pC",
          "type": "uint256[2]",
          "internalType": "uint256[2]"
        },
        {
          "name": "_pubSignals",
          "type": "uint256[1]",
          "internalType": "uint256[1]"
        }
      ],
      "outputs": [],
      "stateMutability": "nonpayable"
    },
    {
      "type": "function",
      "name": "zkContract",
      "inputs": [],
      "outputs": [
        {
          "name": "",
          "type": "address",
          "internalType": "address"
        }
      ],
      "stateMutability": "view"
    },
    {
      "type": "event",
      "name": "Staked",
      "inputs": [
        {
          "name": "staker",
          "type": "address",
          "indexed": false,
          "internalType": "address"
        },
        {
          "name": "amount",
          "type": "uint256",
          "indexed": false,
          "internalType": "uint256"
        }
      ],
      "anonymous": false
    },
    {
      "type": "error",
      "name": "LocationVault__AuthorityCannotWithdrawYet",
      "inputs": []
    },
    {
      "type": "error",
      "name": "LocationVault__InsufficientBalance",
      "inputs": []
    },
    {
      "type": "error",
      "name": "LocationVault__NotAuthority",
      "inputs": []
    },
    {
      "type": "error",
      "name": "LocationVault__NotZkContract",
      "inputs": []
    },
    {
      "type": "error",
      "name": "LocationVault__ProofVerificationFailed",
      "inputs": []
    },
    {
      "type": "error",
      "name": "LocationVault__StakedValueInsufficient",
      "inputs": []
    },
    {
      "type": "error",
      "name": "LocationVault__VisaPeriodOngoing",
      "inputs": []
    },
    {
      "type": "error",
      "name": "LocationVault__WithdrawDateExpired",
      "inputs": []
    },
    {
      "type": "error",
      "name": "ReentrancyGuardReentrantCall",
      "inputs": []
    }
  ],
  "bytecode": {
    "object": "0x608060405234801562000010575f80fd5b506040516200109f3803806200109f833981810160405281019062000036919062000103565b60015f819055505f600260146101000a81548160ff0219169083151502179055508060015f6101000a81548173ffffffffffffffffffffffffffffffffffffffff021916908373ffffffffffffffffffffffffffffffffffffffff1602179055505062000133565b5f80fd5b5f73ffffffffffffffffffffffffffffffffffffffff82169050919050565b5f620000cd82620000a2565b9050919050565b620000df81620000c1565b8114620000ea575f80fd5b50565b5f81519050620000fd81620000d4565b92915050565b5f602082840312156200011b576200011a6200009e565b5b5f6200012a84828501620000ed565b91505092915050565b610f5e80620001415f395ff3fe608060405260043610610054575f3560e01c80632b4ddf8e146100585780633d0620511461006e5780637b0472f014610096578063bf7e214f146100b2578063cf309012146100dc578063d9d944c114610106575b5f80fd5b348015610063575f80fd5b5061006c610130565b005b348015610079575f80fd5b50610094600480360381019061008f9190610ac9565b610440565b005b6100b060048036038101906100ab9190610b62565b61086f565b005b3480156100bd575f80fd5b506100c66109b4565b6040516100d39190610bdf565b60405180910390f35b3480156100e7575f80fd5b506100f06109d9565b6040516100fd9190610c12565b60405180910390f35b348015610111575f80fd5b5061011a6109ec565b6040516101279190610bdf565b60405180910390f35b610138610a11565b60025f9054906101000a900473ffffffffffffffffffffffffffffffffffffffff1673ffffffffffffffffffffffffffffffffffffffff163373ffffffffffffffffffffffffffffffffffffffff16146101be576040517f048fdf0900000000000000000000000000000000000000000000000000000000815260040160405180910390fd5b5f60035f3373ffffffffffffffffffffffffffffffffffffffff1673ffffffffffffffffffffffffffffffffffffffff1681526020019081526020015f206001015411610237576040517f5af2a2c900000000000000000000000000000000000000000000000000000000815260040160405180910390fd5b6206978060035f3373ffffffffffffffffffffffffffffffffffffffff1673ffffffffffffffffffffffffffffffffffffffff1681526020019081526020015f205f01546102859190610c58565b60035f3373ffffffffffffffffffffffffffffffffffffffff1673ffffffffffffffffffffffffffffffffffffffff1681526020019081526020015f2060020154426102d19190610c8b565b11610308576040517fda4ce5a800000000000000000000000000000000000000000000000000000000815260040160405180910390fd5b5f60035f3373ffffffffffffffffffffffffffffffffffffffff1673ffffffffffffffffffffffffffffffffffffffff1681526020019081526020015f20600101819055505f3373ffffffffffffffffffffffffffffffffffffffff1660035f3373ffffffffffffffffffffffffffffffffffffffff1673ffffffffffffffffffffffffffffffffffffffff1681526020019081526020015f20600101546040516103b290610ceb565b5f6040518083038185875af1925050503d805f81146103ec576040519150601f19603f3d011682016040523d82523d5f602084013e6103f1565b606091505b5050905080610435576040517f08c379a000000000000000000000000000000000000000000000000000000000815260040161042c90610d59565b60405180910390fd5b5061043e610a55565b565b610448610a11565b8383838360015f9054906101000a900473ffffffffffffffffffffffffffffffffffffffff1673ffffffffffffffffffffffffffffffffffffffff166343753b4d858585856040518563ffffffff1660e01b81526004016104ac9493929190610e58565b602060405180830381865afa1580156104c7573d5f803e3d5ffd5b505050506040513d601f19601f820116820180604052508101906104eb9190610ec7565b610521576040517f2495765500000000000000000000000000000000000000000000000000000000815260040160405180910390fd5b5f60035f3373ffffffffffffffffffffffffffffffffffffffff1673ffffffffffffffffffffffffffffffffffffffff1681526020019081526020015f20600101541161059a576040517f5af2a2c900000000000000000000000000000000000000000000000000000000815260040160405180910390fd5b60035f3373ffffffffffffffffffffffffffffffffffffffff1673ffffffffffffffffffffffffffffffffffffffff1681526020019081526020015f205f015460035f3373ffffffffffffffffffffffffffffffffffffffff1673ffffffffffffffffffffffffffffffffffffffff1681526020019081526020015f2060020154426106269190610c8b565b101561065e576040517f181f90eb00000000000000000000000000000000000000000000000000000000815260040160405180910390fd5b6206978060035f3373ffffffffffffffffffffffffffffffffffffffff1673ffffffffffffffffffffffffffffffffffffffff1681526020019081526020015f205f01546106ac9190610c58565b60035f3373ffffffffffffffffffffffffffffffffffffffff1673ffffffffffffffffffffffffffffffffffffffff1681526020019081526020015f2060020154426106f89190610c8b565b1061072f576040517f50c347f300000000000000000000000000000000000000000000000000000000815260040160405180910390fd5b5f60035f3373ffffffffffffffffffffffffffffffffffffffff1673ffffffffffffffffffffffffffffffffffffffff1681526020019081526020015f20600101819055505f3373ffffffffffffffffffffffffffffffffffffffff1660035f3373ffffffffffffffffffffffffffffffffffffffff1673ffffffffffffffffffffffffffffffffffffffff1681526020019081526020015f20600101546040516107d990610ceb565b5f6040518083038185875af1925050503d805f8114610813576040519150601f19603f3d011682016040523d82523d5f602084013e610818565b606091505b505090508061085c576040517f08c379a000000000000000000000000000000000000000000000000000000000815260040161085390610d59565b60405180910390fd5b5050505050610869610a55565b50505050565b803410156108a9576040517fd4976f1900000000000000000000000000000000000000000000000000000000815260040160405180910390fd5b8060035f3373ffffffffffffffffffffffffffffffffffffffff1673ffffffffffffffffffffffffffffffffffffffff1681526020019081526020015f20600101819055508160035f3373ffffffffffffffffffffffffffffffffffffffff1673ffffffffffffffffffffffffffffffffffffffff1681526020019081526020015f205f01819055504260035f3373ffffffffffffffffffffffffffffffffffffffff1673ffffffffffffffffffffffffffffffffffffffff1681526020019081526020015f20600201819055507f9e71bc8eea02a63969f509818f2dafb9254532904319f9dbda79b67bd34a5f3d33826040516109a8929190610f01565b60405180910390a15050565b60025f9054906101000a900473ffffffffffffffffffffffffffffffffffffffff1681565b600260149054906101000a900460ff1681565b60015f9054906101000a900473ffffffffffffffffffffffffffffffffffffffff1681565b60025f5403610a4c576040517f3ee5aeb500000000000000000000000000000000000000000000000000000000815260040160405180910390fd5b60025f81905550565b60015f81905550565b5f80fd5b5f80fd5b5f81905082602060020282011115610a8157610a80610a62565b5b92915050565b5f81905082604060020282011115610aa257610aa1610a62565b5b92915050565b5f81905082602060010282011115610ac357610ac2610a62565b5b92915050565b5f805f806101208587031215610ae257610ae1610a5e565b5b5f610aef87828801610a66565b9450506040610b0087828801610a87565b93505060c0610b1187828801610a66565b925050610100610b2387828801610aa8565b91505092959194509250565b5f819050919050565b610b4181610b2f565b8114610b4b575f80fd5b50565b5f81359050610b5c81610b38565b92915050565b5f8060408385031215610b7857610b77610a5e565b5b5f610b8585828601610b4e565b9250506020610b9685828601610b4e565b9150509250929050565b5f73ffffffffffffffffffffffffffffffffffffffff82169050919050565b5f610bc982610ba0565b9050919050565b610bd981610bbf565b82525050565b5f602082019050610bf25f830184610bd0565b92915050565b5f8115159050919050565b610c0c81610bf8565b82525050565b5f602082019050610c255f830184610c03565b92915050565b7f4e487b71000000000000000000000000000000000000000000000000000000005f52601160045260245ffd5b5f610c6282610b2f565b9150610c6d83610b2f565b9250828201905080821115610c8557610c84610c2b565b5b92915050565b5f610c9582610b2f565b9150610ca083610b2f565b9250828203905081811115610cb857610cb7610c2b565b5b92915050565b5f81905092915050565b50565b5f610cd65f83610cbe565b9150610ce182610cc8565b5f82019050919050565b5f610cf582610ccb565b9150819050919050565b5f82825260208201905092915050565b7f5472616e73666572204661696c656400000000000000000000000000000000005f82015250565b5f610d43600f83610cff565b9150610d4e82610d0f565b602082019050919050565b5f6020820190508181035f830152610d7081610d37565b9050919050565b82818337505050565b610d8c60408383610d77565b5050565b5f60029050919050565b5f81905092915050565b5f819050919050565b610db960408383610d77565b5050565b5f610dc88383610dad565b60408301905092915050565b5f82905092915050565b5f604082019050919050565b610df381610d90565b610dfd8184610d9a565b9250610e0882610da4565b805f5b83811015610e4057610e1d8284610dd4565b610e278782610dbd565b9650610e3283610dde565b925050600181019050610e0b565b505050505050565b610e5460208383610d77565b5050565b5f61012082019050610e6c5f830187610d80565b610e796040830186610dea565b610e8660c0830185610d80565b610e94610100830184610e48565b95945050505050565b610ea681610bf8565b8114610eb0575f80fd5b50565b5f81519050610ec181610e9d565b92915050565b5f60208284031215610edc57610edb610a5e565b5b5f610ee984828501610eb3565b91505092915050565b610efb81610b2f565b82525050565b5f604082019050610f145f830185610bd0565b610f216020830184610ef2565b939250505056fea26469706673582212207cce7b6cfccc5f31bbd7d02aa36ab641d6489988eee4cd96d59709a09073b5e864736f6c63430008180033",
    "linkReferences": {}
  },
  "methodIdentifiers": {
    "authority()": "bf7e214f",
    "locked()": "cf309012",
    "stake(uint256,uint256)": "7b0472f0",
    "withdrawByAuthority()": "2b4ddf8e",
    "withdrawByImmigrant(uint256[2],uint256[2][2],uint256[2],uint256[1])": "3d062051",
    "zkContract()": "d9d944c1"
  },
  "id": 17
}