{
  "abi": [
    {
      "type": "constructor",
      "inputs": [
        {
          "name": "_zkContract",
          "type": "address",
          "internalType": "address"
        }
      ],
      "stateMutability": "nonpayable"
    },
    {
      "type": "function",
      "name": "authority",
      "inputs": [],
      "outputs": [
        {
          "name": "",
          "type": "address",
          "internalType": "address"
        }
      ],
      "stateMutability": "view"
    },
    {
      "type": "function",
      "name": "locked",
      "inputs": [],
      "outputs": [
        {
          "name": "",
          "type": "bool",
          "internalType": "bool"
        }
      ],
      "stateMutability": "view"
    },
    {
      "type": "function",
      "name": "stake",
      "inputs": [
        {
          "name": "_period",
          "type": "uint256",
          "internalType": "uint256"
        },
        {
          "name": "_amount",
          "type": "uint256",
          "internalType": "uint256"
        }
      ],
      "outputs": [],
      "stateMutability": "payable"
    },
    {
      "type": "function",
      "name": "withdrawByAuthority",
      "inputs": [],
      "outputs": [],
      "stateMutability": "nonpayable"
    },
    {
      "type": "function",
      "name": "withdrawByImmigrant",
      "inputs": [
        {
          "name": "_pA",
          "type": "uint256[2]",
          "internalType": "uint256[2]"
        },
        {
          "name": "_pB",
          "type": "uint256[2][2]",
          "internalType": "uint256[2][2]"
        },
        {
          "name": "_pC",
          "type": "uint256[2]",
          "internalType": "uint256[2]"
        }
      ],
      "outputs": [],
      "stateMutability": "nonpayable"
    },
    {
      "type": "function",
      "name": "zkContract",
      "inputs": [],
      "outputs": [
        {
          "name": "",
          "type": "address",
          "internalType": "address"
        }
      ],
      "stateMutability": "view"
    },
    {
      "type": "event",
      "name": "Staked",
      "inputs": [
        {
          "name": "staker",
          "type": "address",
          "indexed": false,
          "internalType": "address"
        },
        {
          "name": "amount",
          "type": "uint256",
          "indexed": false,
          "internalType": "uint256"
        }
      ],
      "anonymous": false
    },
    {
      "type": "error",
      "name": "LocationVault__AuthorityCannotWithdrawYet",
      "inputs": []
    },
    {
      "type": "error",
      "name": "LocationVault__InsufficientBalance",
      "inputs": []
    },
    {
      "type": "error",
      "name": "LocationVault__NotAuthority",
      "inputs": []
    },
    {
      "type": "error",
      "name": "LocationVault__NotZkContract",
      "inputs": []
    },
    {
      "type": "error",
      "name": "LocationVault__ProofVerificationFailed",
      "inputs": []
    },
    {
      "type": "error",
      "name": "LocationVault__StakedValueInsufficient",
      "inputs": []
    },
    {
      "type": "error",
      "name": "LocationVault__VisaPeriodOngoing",
      "inputs": []
    },
    {
      "type": "error",
      "name": "LocationVault__WithdrawDateExpired",
      "inputs": []
    },
    {
      "type": "error",
      "name": "ReentrancyGuardReentrantCall",
      "inputs": []
    }
  ],
  "bytecode": {
    "object": "0x608060405234801561000f575f80fd5b506040516200103538038062001035833981810160405281019061003391906100f8565b60015f819055505f600260146101000a81548160ff0219169083151502179055508060015f6101000a81548173ffffffffffffffffffffffffffffffffffffffff021916908373ffffffffffffffffffffffffffffffffffffffff16021790555050610123565b5f80fd5b5f73ffffffffffffffffffffffffffffffffffffffff82169050919050565b5f6100c78261009e565b9050919050565b6100d7816100bd565b81146100e1575f80fd5b50565b5f815190506100f2816100ce565b92915050565b5f6020828403121561010d5761010c61009a565b5b5f61011a848285016100e4565b91505092915050565b610f0480620001315f395ff3fe608060405260043610610054575f3560e01c80632b4ddf8e146100585780637b0472f01461006e578063bf7e214f1461008a578063cf309012146100b4578063d9d944c1146100de578063f73ff35d14610108575b5f80fd5b348015610063575f80fd5b5061006c610130565b005b61008860048036038101906100839190610a90565b610440565b005b348015610095575f80fd5b5061009e610585565b6040516100ab9190610b0d565b60405180910390f35b3480156100bf575f80fd5b506100c86105aa565b6040516100d59190610b40565b60405180910390f35b3480156100e9575f80fd5b506100f26105bd565b6040516100ff9190610b0d565b60405180910390f35b348015610113575f80fd5b5061012e60048036038101906101299190610b9f565b6105e2565b005b610138610a0c565b60025f9054906101000a900473ffffffffffffffffffffffffffffffffffffffff1673ffffffffffffffffffffffffffffffffffffffff163373ffffffffffffffffffffffffffffffffffffffff16146101be576040517f048fdf0900000000000000000000000000000000000000000000000000000000815260040160405180910390fd5b5f60035f3373ffffffffffffffffffffffffffffffffffffffff1673ffffffffffffffffffffffffffffffffffffffff1681526020019081526020015f206001015411610237576040517f5af2a2c900000000000000000000000000000000000000000000000000000000815260040160405180910390fd5b6206978060035f3373ffffffffffffffffffffffffffffffffffffffff1673ffffffffffffffffffffffffffffffffffffffff1681526020019081526020015f205f01546102859190610c1d565b60035f3373ffffffffffffffffffffffffffffffffffffffff1673ffffffffffffffffffffffffffffffffffffffff1681526020019081526020015f2060020154426102d19190610c50565b11610308576040517fda4ce5a800000000000000000000000000000000000000000000000000000000815260040160405180910390fd5b5f60035f3373ffffffffffffffffffffffffffffffffffffffff1673ffffffffffffffffffffffffffffffffffffffff1681526020019081526020015f20600101819055505f3373ffffffffffffffffffffffffffffffffffffffff1660035f3373ffffffffffffffffffffffffffffffffffffffff1673ffffffffffffffffffffffffffffffffffffffff1681526020019081526020015f20600101546040516103b290610cb0565b5f6040518083038185875af1925050503d805f81146103ec576040519150601f19603f3d011682016040523d82523d5f602084013e6103f1565b606091505b5050905080610435576040517f08c379a000000000000000000000000000000000000000000000000000000000815260040161042c90610d1e565b60405180910390fd5b5061043e610a50565b565b8034101561047a576040517fd4976f1900000000000000000000000000000000000000000000000000000000815260040160405180910390fd5b8060035f3373ffffffffffffffffffffffffffffffffffffffff1673ffffffffffffffffffffffffffffffffffffffff1681526020019081526020015f20600101819055508160035f3373ffffffffffffffffffffffffffffffffffffffff1673ffffffffffffffffffffffffffffffffffffffff1681526020019081526020015f205f01819055504260035f3373ffffffffffffffffffffffffffffffffffffffff1673ffffffffffffffffffffffffffffffffffffffff1681526020019081526020015f20600201819055507f9e71bc8eea02a63969f509818f2dafb9254532904319f9dbda79b67bd34a5f3d3382604051610579929190610d4b565b60405180910390a15050565b60025f9054906101000a900473ffffffffffffffffffffffffffffffffffffffff1681565b600260149054906101000a900460ff1681565b60015f9054906101000a900473ffffffffffffffffffffffffffffffffffffffff1681565b6105ea610a0c565b82828260015f9054906101000a900473ffffffffffffffffffffffffffffffffffffffff1673ffffffffffffffffffffffffffffffffffffffff16636668a9fa8484846040518463ffffffff1660e01b815260040161064b93929190610e43565b602060405180830381865afa158015610666573d5f803e3d5ffd5b505050506040513d601f19601f8201168201806040525081019061068a9190610ea3565b6106c0576040517f2495765500000000000000000000000000000000000000000000000000000000815260040160405180910390fd5b5f60035f3373ffffffffffffffffffffffffffffffffffffffff1673ffffffffffffffffffffffffffffffffffffffff1681526020019081526020015f206001015411610739576040517f5af2a2c900000000000000000000000000000000000000000000000000000000815260040160405180910390fd5b60035f3373ffffffffffffffffffffffffffffffffffffffff1673ffffffffffffffffffffffffffffffffffffffff1681526020019081526020015f205f015460035f3373ffffffffffffffffffffffffffffffffffffffff1673ffffffffffffffffffffffffffffffffffffffff1681526020019081526020015f2060020154426107c59190610c50565b10156107fd576040517f181f90eb00000000000000000000000000000000000000000000000000000000815260040160405180910390fd5b6206978060035f3373ffffffffffffffffffffffffffffffffffffffff1673ffffffffffffffffffffffffffffffffffffffff1681526020019081526020015f205f015461084b9190610c1d565b60035f3373ffffffffffffffffffffffffffffffffffffffff1673ffffffffffffffffffffffffffffffffffffffff1681526020019081526020015f2060020154426108979190610c50565b106108ce576040517f50c347f300000000000000000000000000000000000000000000000000000000815260040160405180910390fd5b5f60035f3373ffffffffffffffffffffffffffffffffffffffff1673ffffffffffffffffffffffffffffffffffffffff1681526020019081526020015f20600101819055505f3373ffffffffffffffffffffffffffffffffffffffff1660035f3373ffffffffffffffffffffffffffffffffffffffff1673ffffffffffffffffffffffffffffffffffffffff1681526020019081526020015f206001015460405161097890610cb0565b5f6040518083038185875af1925050503d805f81146109b2576040519150601f19603f3d011682016040523d82523d5f602084013e6109b7565b606091505b50509050806109fb576040517f08c379a00000000000000000000000000000000000000000000000000000000081526004016109f290610d1e565b60405180910390fd5b50505050610a07610a50565b505050565b60025f5403610a47576040517f3ee5aeb500000000000000000000000000000000000000000000000000000000815260040160405180910390fd5b60025f81905550565b60015f81905550565b5f80fd5b5f819050919050565b610a6f81610a5d565b8114610a79575f80fd5b50565b5f81359050610a8a81610a66565b92915050565b5f8060408385031215610aa657610aa5610a59565b5b5f610ab385828601610a7c565b9250506020610ac485828601610a7c565b9150509250929050565b5f73ffffffffffffffffffffffffffffffffffffffff82169050919050565b5f610af782610ace565b9050919050565b610b0781610aed565b82525050565b5f602082019050610b205f830184610afe565b92915050565b5f8115159050919050565b610b3a81610b26565b82525050565b5f602082019050610b535f830184610b31565b92915050565b5f80fd5b5f81905082602060020282011115610b7857610b77610b59565b5b92915050565b5f81905082604060020282011115610b9957610b98610b59565b5b92915050565b5f805f6101008486031215610bb757610bb6610a59565b5b5f610bc486828701610b5d565b9350506040610bd586828701610b7e565b92505060c0610be686828701610b5d565b9150509250925092565b7f4e487b71000000000000000000000000000000000000000000000000000000005f52601160045260245ffd5b5f610c2782610a5d565b9150610c3283610a5d565b9250828201905080821115610c4a57610c49610bf0565b5b92915050565b5f610c5a82610a5d565b9150610c6583610a5d565b9250828203905081811115610c7d57610c7c610bf0565b5b92915050565b5f81905092915050565b50565b5f610c9b5f83610c83565b9150610ca682610c8d565b5f82019050919050565b5f610cba82610c90565b9150819050919050565b5f82825260208201905092915050565b7f5472616e73666572204661696c656400000000000000000000000000000000005f82015250565b5f610d08600f83610cc4565b9150610d1382610cd4565b602082019050919050565b5f6020820190508181035f830152610d3581610cfc565b9050919050565b610d4581610a5d565b82525050565b5f604082019050610d5e5f830185610afe565b610d6b6020830184610d3c565b9392505050565b82818337505050565b610d8760408383610d72565b5050565b5f60029050919050565b5f81905092915050565b5f819050919050565b610db460408383610d72565b5050565b5f610dc38383610da8565b60408301905092915050565b5f82905092915050565b5f604082019050919050565b610dee81610d8b565b610df88184610d95565b9250610e0382610d9f565b805f5b83811015610e3b57610e188284610dcf565b610e228782610db8565b9650610e2d83610dd9565b925050600181019050610e06565b505050505050565b5f61010082019050610e575f830186610d7b565b610e646040830185610de5565b610e7160c0830184610d7b565b949350505050565b610e8281610b26565b8114610e8c575f80fd5b50565b5f81519050610e9d81610e79565b92915050565b5f60208284031215610eb857610eb7610a59565b5b5f610ec584828501610e8f565b9150509291505056fea26469706673582212208c49bbda6f3ebe63d14749ec648c0a1d19f548261d434a4152229dc34f5af7c864736f6c63430008180033",
    "linkReferences": {}
  },
  "methodIdentifiers": {
    "authority()": "bf7e214f",
    "locked()": "cf309012",
    "stake(uint256,uint256)": "7b0472f0",
    "withdrawByAuthority()": "2b4ddf8e",
    "withdrawByImmigrant(uint256[2],uint256[2][2],uint256[2])": "f73ff35d",
    "zkContract()": "d9d944c1"
  },
  "id": 17
}